{
  "contractName": "Auction",
  "abi": [
    {
      "constant": true,
      "inputs": [],
      "name": "isOpen",
      "outputs": [
        {
          "name": "",
          "type": "bool"
        }
      ],
      "payable": false,
      "stateMutability": "view",
      "type": "function"
    },
    {
      "constant": true,
      "inputs": [],
      "name": "auctionEndTime",
      "outputs": [
        {
          "name": "",
          "type": "uint256"
        }
      ],
      "payable": false,
      "stateMutability": "view",
      "type": "function"
    },
    {
      "constant": true,
      "inputs": [],
      "name": "desc",
      "outputs": [
        {
          "name": "",
          "type": "string"
        }
      ],
      "payable": false,
      "stateMutability": "view",
      "type": "function"
    },
    {
      "constant": true,
      "inputs": [],
      "name": "owner",
      "outputs": [
        {
          "name": "",
          "type": "address"
        }
      ],
      "payable": false,
      "stateMutability": "view",
      "type": "function"
    },
    {
      "constant": true,
      "inputs": [],
      "name": "highestBidder",
      "outputs": [
        {
          "name": "",
          "type": "address"
        }
      ],
      "payable": false,
      "stateMutability": "view",
      "type": "function"
    },
    {
      "constant": true,
      "inputs": [],
      "name": "revealTime",
      "outputs": [
        {
          "name": "",
          "type": "uint256"
        }
      ],
      "payable": false,
      "stateMutability": "view",
      "type": "function"
    },
    {
      "constant": true,
      "inputs": [],
      "name": "timeLimit",
      "outputs": [
        {
          "name": "",
          "type": "uint256"
        }
      ],
      "payable": false,
      "stateMutability": "view",
      "type": "function"
    },
    {
      "constant": true,
      "inputs": [],
      "name": "revealEndTime",
      "outputs": [
        {
          "name": "",
          "type": "uint256"
        }
      ],
      "payable": false,
      "stateMutability": "view",
      "type": "function"
    },
    {
      "constant": true,
      "inputs": [],
      "name": "highestBid",
      "outputs": [
        {
          "name": "",
          "type": "uint256"
        }
      ],
      "payable": false,
      "stateMutability": "view",
      "type": "function"
    },
    {
      "constant": true,
      "inputs": [],
      "name": "startPrice",
      "outputs": [
        {
          "name": "",
          "type": "uint256"
        }
      ],
      "payable": false,
      "stateMutability": "view",
      "type": "function"
    },
    {
      "constant": true,
      "inputs": [],
      "name": "item",
      "outputs": [
        {
          "name": "",
          "type": "string"
        }
      ],
      "payable": false,
      "stateMutability": "view",
      "type": "function"
    },
    {
      "inputs": [
        {
          "name": "_item",
          "type": "string"
        },
        {
          "name": "_startPrice",
          "type": "uint256"
        },
        {
          "name": "_desc",
          "type": "string"
        },
        {
          "name": "_timeLimit",
          "type": "uint256"
        },
        {
          "name": "_revealTime",
          "type": "uint256"
        },
        {
          "name": "_owner",
          "type": "address"
        }
      ],
      "payable": false,
      "stateMutability": "nonpayable",
      "type": "constructor"
    },
    {
      "anonymous": false,
      "inputs": [
        {
          "indexed": false,
          "name": "",
          "type": "string"
        }
      ],
      "name": "log",
      "type": "event"
    },
    {
      "anonymous": false,
      "inputs": [
        {
          "indexed": false,
          "name": "",
          "type": "uint256"
        }
      ],
      "name": "logNum",
      "type": "event"
    },
    {
      "anonymous": false,
      "inputs": [
        {
          "indexed": false,
          "name": "",
          "type": "bytes32"
        }
      ],
      "name": "logBytes",
      "type": "event"
    },
    {
      "anonymous": false,
      "inputs": [],
      "name": "OpenRevealPeriod",
      "type": "event"
    },
    {
      "anonymous": false,
      "inputs": [
        {
          "indexed": false,
          "name": "winner",
          "type": "address"
        },
        {
          "indexed": false,
          "name": "amount",
          "type": "uint256"
        }
      ],
      "name": "Results",
      "type": "event"
    },
    {
      "constant": false,
      "inputs": [
        {
          "name": "sealedBid",
          "type": "bytes32"
        }
      ],
      "name": "bid",
      "outputs": [],
      "payable": true,
      "stateMutability": "payable",
      "type": "function"
    },
    {
      "constant": true,
      "inputs": [
        {
          "name": "text",
          "type": "string"
        },
        {
          "name": "char",
          "type": "string"
        }
      ],
      "name": "getIndex",
      "outputs": [
        {
          "name": "",
          "type": "uint256"
        }
      ],
      "payable": false,
      "stateMutability": "pure",
      "type": "function"
    },
    {
      "constant": true,
      "inputs": [
        {
          "name": "text",
          "type": "string"
        },
        {
          "name": "startIndex",
          "type": "uint256"
        },
        {
          "name": "endIndex",
          "type": "uint256"
        }
      ],
      "name": "getSubstring",
      "outputs": [
        {
          "name": "",
          "type": "string"
        }
      ],
      "payable": false,
      "stateMutability": "pure",
      "type": "function"
    },
    {
      "constant": true,
      "inputs": [
        {
          "name": "text",
          "type": "string"
        }
      ],
      "name": "parseInt",
      "outputs": [
        {
          "name": "number",
          "type": "uint256"
        }
      ],
      "payable": false,
      "stateMutability": "pure",
      "type": "function"
    },
    {
      "constant": false,
      "inputs": [
        {
          "name": "bidString",
          "type": "string"
        },
        {
          "name": "sealedBid",
          "type": "bytes32"
        }
      ],
      "name": "revealBid",
      "outputs": [],
      "payable": false,
      "stateMutability": "nonpayable",
      "type": "function"
    },
    {
      "constant": false,
      "inputs": [],
      "name": "finalizeAuction",
      "outputs": [],
      "payable": false,
      "stateMutability": "nonpayable",
      "type": "function"
    },
    {
      "constant": false,
      "inputs": [],
      "name": "withdraw",
      "outputs": [],
      "payable": false,
      "stateMutability": "nonpayable",
      "type": "function"
    },
    {
      "constant": true,
      "inputs": [],
      "name": "showAuctionInfo",
      "outputs": [
        {
          "name": "",
          "type": "string"
        },
        {
          "name": "",
          "type": "uint256"
        },
        {
          "name": "",
          "type": "string"
        },
        {
          "name": "",
          "type": "uint256"
        },
        {
          "name": "",
          "type": "uint256"
        },
        {
          "name": "",
          "type": "bool"
        },
        {
          "name": "",
          "type": "address"
        },
        {
          "name": "",
          "type": "address"
        },
        {
          "name": "",
          "type": "uint256"
        }
      ],
      "payable": false,
      "stateMutability": "view",
      "type": "function"
    }
  ],
  "bytecode": "0x60806040526008805460ff191660011790553480156200001e57600080fd5b506040516200183f3803806200183f833981018060405260c08110156200004457600080fd5b8101908080516401000000008111156200005d57600080fd5b820160208101848111156200007157600080fd5b81516401000000008111828201871017156200008c57600080fd5b50506020820151604090920180519194929391640100000000811115620000b257600080fd5b82016020810184811115620000c657600080fd5b8151640100000000811182820187101715620000e157600080fd5b505060208083015160408401516060909401518851939650909450916200010f916000919089019062000171565b50600180546001600160a01b0319166001600160a01b038316179055670de0b6b3a7640000850260025583516200014e90600390602087019062000171565b505060058290556007819055429091016004819055016006555062000216915050565b828054600181600116156101000203166002900490600052602060002090601f016020900481019282601f10620001b457805160ff1916838001178555620001e4565b82800160010185558215620001e4579182015b82811115620001e4578251825591602001919060010190620001c7565b50620001f2929150620001f6565b5090565b6200021391905b80821115620001f25760008155600101620001fd565b90565b61161980620002266000396000f3fe6080604052600436106101145760003560e01c8063957bb1e0116100a0578063d57bde7911610064578063d57bde79146105fc578063edb7714114610611578063f1a9af891461075d578063f2a4a82e14610772578063f77282ab1461078757610114565b8063957bb1e0146104ed578063a9b2f6e91461050a578063ba829d71146105bd578063c08d1fe5146105d2578063d49dc1d8146105e757610114565b80634b449cba116100e75780634b449cba1461034757806355f150f11461035c5780636378abda146103715780638da5cb5b146104a757806391f90157146104d857610114565b80633c83058b146101195780633ccfd60b1461024457806342346c5e1461025b57806347535d7b1461031e575b600080fd5b34801561012557600080fd5b506101cf6004803603606081101561013c57600080fd5b810190602081018135600160201b81111561015657600080fd5b82018360208201111561016857600080fd5b803590602001918460018302840111600160201b8311171561018957600080fd5b91908080601f016020809104026020016040519081016040528093929190818152602001838380828437600092019190915250929550508235935050506020013561079c565b6040805160208082528351818301528351919283929083019185019080838360005b838110156102095781810151838201526020016101f1565b50505050905090810190601f1680156102365780820380516001836020036101000a031916815260200191505b509250505060405180910390f35b34801561025057600080fd5b5061025961082c565b005b34801561026757600080fd5b5061030c6004803603602081101561027e57600080fd5b810190602081018135600160201b81111561029857600080fd5b8201836020820111156102aa57600080fd5b803590602001918460018302840111600160201b831117156102cb57600080fd5b91908080601f0160208091040260200160405190810160405280939291908181526020018383808284376000920191909152509295506108e4945050505050565b60408051918252519081900360200190f35b34801561032a57600080fd5b506103336109a6565b604080519115158252519081900360200190f35b34801561035357600080fd5b5061030c6109af565b34801561036857600080fd5b506101cf6109b5565b34801561037d57600080fd5b5061030c6004803603604081101561039457600080fd5b810190602081018135600160201b8111156103ae57600080fd5b8201836020820111156103c057600080fd5b803590602001918460018302840111600160201b831117156103e157600080fd5b91908080601f0160208091040260200160405190810160405280939291908181526020018383808284376000920191909152509295949360208101935035915050600160201b81111561043357600080fd5b82018360208201111561044557600080fd5b803590602001918460018302840111600160201b8311171561046657600080fd5b91908080601f016020809104026020016040519081016040528093929190818152602001838380828437600092019190915250929550610a43945050505050565b3480156104b357600080fd5b506104bc610ab6565b604080516001600160a01b039092168252519081900360200190f35b3480156104e457600080fd5b506104bc610ac5565b6102596004803603602081101561050357600080fd5b5035610ad9565b34801561051657600080fd5b506102596004803603604081101561052d57600080fd5b810190602081018135600160201b81111561054757600080fd5b82018360208201111561055957600080fd5b803590602001918460018302840111600160201b8311171561057a57600080fd5b91908080601f0160208091040260200160405190810160405280939291908181526020018383808284376000920191909152509295505091359250610c37915050565b3480156105c957600080fd5b5061030c610ef5565b3480156105de57600080fd5b5061030c610efb565b3480156105f357600080fd5b5061030c610f01565b34801561060857600080fd5b5061030c610f07565b34801561061d57600080fd5b50610626610f0d565b60405180806020018a81526020018060200189815260200188815260200187151515158152602001866001600160a01b03166001600160a01b03168152602001856001600160a01b03166001600160a01b0316815260200184815260200183810383528c818151815260200191508051906020019080838360005b838110156106b95781810151838201526020016106a1565b50505050905090810190601f1680156106e65780820380516001836020036101000a031916815260200191505b5083810382528a5181528a516020918201918c019080838360005b83811015610719578181015183820152602001610701565b50505050905090810190601f1680156107465780820380516001836020036101000a031916815260200191505b509b50505050505050505050505060405180910390f35b34801561076957600080fd5b5061030c6110b2565b34801561077e57600080fd5b506101cf6110b8565b34801561079357600080fd5b50610259611113565b60608084905060608484036040519080825280601f01601f1916602001820160405280156107d1576020820181803883390190505b509050845b84811015610822578281815181106107ea57fe5b602001015160f81c60f81b828783038151811061080357fe5b60200101906001600160f81b031916908160001a9053506001016107d6565b5095945050505050565b60065442101561087057604051600160e51b62461bcd02815260040180806020018281038252603a8152602001806112ef603a913960400191505060405180910390fd5b336000908152600a602052604090205480156108b357336000818152600a602052604081205560085461010090046001600160a01b031614156108b35760095490035b604051339082156108fc029083906000818181858888f193505050501580156108e0573d6000803e3d6000fd5b5050565b6000808281805b82518110156109475782818151811061090057fe5b602001015160f81c60f81b60f81c60ff16915060308210158015610925575060398211155b1561093a576030820385600a0201945061093f565b600193505b6001016108eb565b50821561099e5760408051600160e51b62461bcd02815260206004820152601f60248201527f416e20696e76616c6964206269642076616c75652077617320706c6163656400604482015290519081900360640190fd5b505050919050565b60085460ff1681565b60045481565b6003805460408051602060026001851615610100026000190190941693909304601f81018490048402820184019092528181529291830182828015610a3b5780601f10610a1057610100808354040283529160200191610a3b565b820191906000526020600020905b815481529060010190602001808311610a1e57829003601f168201915b505050505081565b60008282825b82518111610aac5781600081518110610a5e57fe5b602001015160f81c60f81b6001600160f81b031916838281518110610a7f57fe5b602001015160f81c60f81b6001600160f81b0319161415610aa4579250610ab0915050565b600101610a49565b5050505b92915050565b6001546001600160a01b031681565b60085461010090046001600160a01b031681565b6001546001600160a01b0316331415610b2657604051600160e51b62461bcd0281526004018080602001828103825260348152602001806115ba6034913960400191505060405180910390fd5b8060001a60f81b6001600160f81b031916610b7557604051600160e51b62461bcd0281526004018080602001828103825260698152602001806114be6069913960800191505060405180910390fd5b600454421115610bb957604051600160e51b62461bcd0281526004018080602001828103825260368152602001806114366036913960400191505060405180910390fd5b60003411610bfb57604051600160e51b62461bcd02815260040180806020018281038252603f81526020018061154a603f913960400191505060405180910390fd5b3415610c1757336000908152600a602052604090208054340190555b6000908152600b6020526040902080546001600160a01b03191633179055565b6004544210158015610c4b57506006544211155b610c8957604051600160e51b62461bcd02815260040180806020018281038252605d8152602001806113b2605d913960600191505060405180910390fd5b816040516020018082805190602001908083835b60208310610cbc5780518252601f199092019160209182019101610c9d565b6001836020036101000a038019825116818451168082178552505050505050905001915050604051602081830303815290604052805190602001208114610d3757604051600160e51b62461bcd02815260040180806020018281038252602781526020018061140f6027913960400191505060405180910390fd5b6000610d5f83604051806040016040528060018152602001600160f81b602d02815250610a43565b905060008111610da357604051600160e51b62461bcd02815260040180806020018281038252604481526020018061136e6044913960600191505060405180910390fd5b6060610db18460008461079c565b90506000610dbe826108e4565b336000908152600a6020526040902054670de0b6b3a7640000919091029150811115610e1e57604051600160e51b62461bcd02815260040180806020018281038252606b815260200180611284606b913960800191505060405180910390fd5b6002548111610e6157604051600160e51b62461bcd0281526004018080602001828103825260458152602001806113296045913960600191505060405180910390fd5b6000848152600b60205260409020546001600160a01b03163314610eb957604051600160e51b62461bcd0281526004018080602001828103825260268152602001806114986026913960400191505060405180910390fd5b60095481118015610ecc57506002548110155b15610eee5760088054610100600160a81b031916336101000217905560098190555b5050505050565b60075481565b60055481565b60065481565b60095481565b60606000606060008060008060008060006002546003600454600654600860009054906101000a900460ff16600160009054906101000a90046001600160a01b0316600860019054906101000a90046001600160a01b0316600954888054600181600116156101000203166002900480601f016020809104026020016040519081016040528092919081815260200182805460018160011615610100020316600290048015610ffd5780601f10610fd257610100808354040283529160200191610ffd565b820191906000526020600020905b815481529060010190602001808311610fe057829003601f168201915b50508a5460408051602060026001851615610100026000190190941693909304601f8101849004840282018401909252818152959e508c94509250840190508282801561108b5780601f106110605761010080835404028352916020019161108b565b820191906000526020600020905b81548152906001019060200180831161106e57829003601f168201915b50505050509650829250985098509850985098509850985098509850909192939495969798565b60025481565b6000805460408051602060026001851615610100026000190190941693909304601f81018490048402820184019092528181529291830182828015610a3b5780601f10610a1057610100808354040283529160200191610a3b565b6001546001600160a01b0316331461115f57604051600160e51b62461bcd02815260040180806020018281038252602c81526020018061146c602c913960400191505060405180910390fd5b6006544210156111a357604051600160e51b62461bcd0281526004018080602001828103825260238152602001806115276023913960400191505060405180910390fd5b60085460ff1615156001146111ec57604051600160e51b62461bcd0281526004018080602001828103825260318152602001806115896031913960400191505060405180910390fd5b6008805460ff191690819055600954604080516101009093046001600160a01b03168352602083019190915280517fb354f5f35c8f778fc7c929934d33d671378c3b6e4b67990ded50c83fad6ed7869281900390910190a16001546009546040516001600160a01b039092169181156108fc0291906000818181858888f19350505050158015611280573d6000803e3d6000fd5b5056fe536f72727920796f75722062696420686173206265656e2072656a6563746564206265636175736520697420657863656564732074686520746f74616c20616d6f756e74206f66206465706f7369747320796f752068617665206d61646520666f722074686973206269645468697320616374696f6e2063616e206f6e6c7920626520706572666f726d656420616674657220616e2061756374696f6e206973206f766572536f72727920796f75722062696420686173206265656e2072656a6563746564206265636175736520697420697320756e64657220746865207374617274696e6720626964496e7075747465642062696420776173206e6f7420696e2074686520636f727265637420666f726d617420616e64206973207468657265666f72652072656a65637465645468697320616374696f6e2063616e206f6e6c7920626520706572666f726d6564206166746572207468652061756374696f6e206973206f76657220616e64207468652072657665616c20706572696f64206861732073746172746564426964206861736820646f6573206e6f74206d617463682077697468207365616c656420626964536f7272792c207468652062696464696e672077696e646f772068617320636c6f73656420666f7220746869732061756374696f6e2e596f75206d75737420626520746865206f776e657220746f20706572666f726d207468697320616374696f6e536f727279207468697320776173206e6f7420612062696420796f75207375626d6974746564506c6561736520696e7075742061206861736865642076657273696f6e206f6620796f75722062696420696e2077686f6c6520756e697473206f662045544820696e2074686520666f6c6c6f77696e6720666f726d61743a205b4269645d2d5b70617373776f72645d41756374696f6e20686173206e6f74206265656e20636f6d706c65746564207965742e536f7272792c20796f75206d757374206d616b652061206465706f736974206f6620616e20616d6f756e742067726561746572207468616e2030204554482e5468652061756374696f6e2068617320616c7265616479206265656e206d61726b656420617320636f6d706c657465642e546865206f776e6572206f6620746869732061756374696f6e2063616e6e6f7420706572666f726d207468697320616374696f6ea165627a7a72305820e81ba8923e622ccc4163441239c8d684df4fd6a0ff1f5b15b3912fcc04e74f810029",
  "source": "pragma solidity ^0.5.0;\n\n//*****Todo: Sealed auction part\n\n//Contract for Auction House overseeing individual auctions\ncontract AuctionHouse {\n    //Track all auctions\n    Auction[] public auctions;\n\n    //Broadcast new auctions\n    event AuctionCreated(address singleAuction);\n\n    //Create new auction with the parameters auction item and time limit.\n    function createAuction (\n      string memory _item,\n      uint _startPrice,\n      string memory _desc,\n      uint _timeLimit,\n      uint _revealTime\n    ) public returns (address auctionAddress){\n\n      //Error handling\n      require(_timeLimit > 0, 'Please input a proper auction time limit.');\n      require(_revealTime > 0, 'Please input a proper reveal time limit.');\n      require(bytes(_item).length > 0, 'Please input a proper auction item name.');\n\n      //Add new auction and returns auction contract address\n      Auction newAuction = new Auction(_item, _startPrice, _desc, _timeLimit, _revealTime, msg.sender);\n      emit AuctionCreated(address(newAuction));\n      auctions.push(newAuction);\n      return address(newAuction);\n    }\n\n    //Return list of all auctions\n    function returnAllAuctions() public view returns(Auction[] memory) {\n      return auctions;\n    }\n}\n\n//Contract for individual auctions\ncontract Auction {\n\n    //Initialize global variables\n    string public item;\n    address payable public owner;\n    uint public startPrice;\n    string public desc;\n    uint public auctionEndTime;\n    uint public timeLimit;\n    uint public revealEndTime;\n    uint public revealTime;\n    bool public isOpen = true;\n    address public highestBidder;\n    uint public highestBid;\n\n    mapping(address => uint) deposits;\n    mapping(bytes32 => address) sealedBidList;\n\n    event log(string);\n    event logNum(uint);\n    event logBytes(bytes32);\n    event OpenRevealPeriod();\n    event Results(address winner, uint amount);\n\n    modifier isOwner {\n        require(msg.sender == owner, \"You must be the owner to perform this action\");\n        _;\n    }\n    modifier isNotOwner {\n        require(msg.sender != owner, \"The owner of this auction cannot perform this action\");\n        _;\n    }\n    modifier revealPeriod {\n        require(now >= auctionEndTime && now <= revealEndTime, \"This action can only be performed after the auction is over and the reveal period has started\");\n        _;\n    }\n    modifier completedAuction {\n        require(now >= revealEndTime, \"This action can only be performed after an auction is over\");\n        _;\n    }\n\n\n    constructor(\n        string memory _item,\n        uint _startPrice,\n        string memory _desc,\n        uint _timeLimit,\n        uint _revealTime,\n        address payable _owner\n    ) public {\n        item = _item;\n        owner = _owner;\n        startPrice = _startPrice * 1 ether;\n        desc = _desc;\n        timeLimit = _timeLimit;\n        revealTime = _revealTime;\n        auctionEndTime = now + timeLimit * 1 seconds;\n        revealEndTime = auctionEndTime + revealTime * 1 seconds;\n    }\n\n    //Allows users to bid for auctions, but prevents owner from entering bids\n    function bid (bytes32 sealedBid) isNotOwner public payable {\n\n        require(sealedBid[0] != 0, \"Please input a hashed version of your bid in whole units of ETH in the following format: [Bid]-[password]\");\n        require(now <= auctionEndTime, \"Sorry, the bidding window has closed for this auction.\");\n        require(msg.value > 0, \"Sorry, you must make a deposit of an amount greater than 0 ETH.\");\n\n        //Marks down all deposits from each address\n        if (msg.value > 0) {\n          deposits[msg.sender] += msg.value;\n        }\n\n        //Record every sealed bid made by each bidder\n        sealedBidList[sealedBid] = msg.sender;\n    }\n\n    //Find character in string\n    function getIndex(string memory text, string memory char) public pure returns (uint) {\n        bytes memory bytesText = bytes(text);\n        bytes memory bytesChar = bytes(char);\n        for(uint i = 0; i<=bytesText.length; i++)\n        {\n            if(bytesText[i] == bytesChar[0])\n            {\n                return i;\n            }\n        }\n    }\n\n    //Locate hyphen to separate bid amount from password\n    function getSubstring(string memory text, uint startIndex, uint endIndex) public pure returns (string memory) {\n        bytes memory bytesText = bytes(text);\n        bytes memory substring = new bytes(endIndex - startIndex);\n        for (uint i = startIndex; i < endIndex; i++)\n        {\n            substring[i-startIndex] = bytesText[i];\n        }\n        return string(substring);\n    }\n\n    //Convert bid number from string to int\n    function parseInt(string memory text) public pure returns (uint number) {\n        bool isError = false;\n\n        bytes memory bytesText = bytes(text);\n        number = 0;\n        uint temp = 0;\n        for(uint i = 0; i < bytesText.length; i++)\n        {\n            temp = uint256(uint8(bytesText[i]));\n            if(temp >= 48 && temp <= 57)\n            {\n                number = number * 10 + (temp - 48);\n            }\n            else\n            {\n                isError = true;\n            }\n        }\n\n        require(isError == false, \"An invalid bid value was placed\");\n\n        return number;\n    }\n\n    function revealBid (string memory bidString, bytes32 sealedBid) revealPeriod public {\n        //Reveal bid and password from hash\n        require(sealedBid == keccak256(abi.encodePacked(bidString)), 'Bid hash does not match with sealed bid');\n\n        //Separate bid amount from password and convert bid string to int value\n        uint endIndex = getIndex(bidString, \"-\");\n        require(endIndex > 0, \"Inputted bid was not in the correct format and is therefore rejected\");\n        string memory strRevealedBid = getSubstring(bidString, 0, endIndex);\n        uint revealedBid = parseInt(strRevealedBid) * 1 ether;\n\n        //Error handling\n        require(deposits[msg.sender] >= revealedBid, \"Sorry your bid has been rejected because it exceeds the total amount of deposits you have made for this bid\");\n        require(revealedBid > startPrice, \"Sorry your bid has been rejected because it is under the starting bid\");\n        require(sealedBidList[sealedBid] == msg.sender, \"Sorry this was not a bid you submitted\");\n\n        //Record highest bids as they are revealed\n        if (revealedBid > highestBid && revealedBid >= startPrice) {\n          highestBidder = msg.sender;\n          highestBid = revealedBid;\n        }\n    }\n\n    //Settle auction and marks as complete - can only be executed by the owner\n    function finalizeAuction() isOwner public {\n\n        require(now >= revealEndTime, \"Auction has not been completed yet.\");\n        require(isOpen == true, \"The auction has already been marked as completed.\");\n\n        //Mark auction as closed, transfers money and announces results\n        isOpen = false;\n        emit Results(highestBidder, highestBid);\n\n        owner.transfer(highestBid);\n    }\n\n    //Allow withdrawal of lost bids after auction is marked finalized\n    function withdraw() completedAuction public {\n\n        uint amount = deposits[msg.sender];\n\n        if (amount > 0) {\n\n            //Mark deposit as 0 to prevent double withdrawals\n            deposits[msg.sender] = 0;\n\n            //Reduce the amount of withdrawals highest bidder gets by the highest bid amount\n            if(msg.sender == highestBidder)\n            {\n              amount -= highestBid;\n            }\n\n        }\n        (msg.sender).transfer(amount);\n    }\n\n    //Return values of individual auctions to be retrieved\n    function showAuctionInfo() public view returns (string memory, uint, string memory, uint, uint, bool, address, address, uint) {\n      return (item, startPrice, desc, auctionEndTime, revealEndTime, isOpen, owner, highestBidder, highestBid);\n    }\n\n}\n",
  "sourcePath": "/Users/Jonathan/Auction_PC/Auction/contracts/AuctionHouse.sol",
  "compiler": {
    "name": "solc",
    "version": "0.5.8+commit.23d335f2.Emscripten.clang"
  },
  "schemaVersion": "3.0.16",
  "updatedAt": "2019-10-13T18:58:52.293Z",
  "devdoc": {
    "methods": {}
  },
  "userdoc": {
    "methods": {}
  }
}